{
  "_format": "hh-sol-artifact-1",
  "contractName": "Bond",
  "sourceName": "contracts/Bond.sol",
  "abi": [
    {
      "inputs": [
        {
          "internalType": "address",
          "name": "registrar_",
          "type": "address"
        },
        {
          "internalType": "address",
          "name": "whitelistAddress_",
          "type": "address"
        },
        {
          "internalType": "string",
          "name": "isin_",
          "type": "string"
        },
        {
          "internalType": "string",
          "name": "issuerLei_",
          "type": "string"
        },
        {
          "internalType": "uint64",
          "name": "issuanceVolume_",
          "type": "uint64"
        },
        {
          "internalType": "enum Bond.Currency",
          "name": "issuanceCurrency_",
          "type": "uint8"
        },
        {
          "internalType": "uint64",
          "name": "minimumOrderVolume_",
          "type": "uint64"
        },
        {
          "internalType": "uint24",
          "name": "couponRate_",
          "type": "uint24"
        },
        {
          "internalType": "uint64",
          "name": "startDate_",
          "type": "uint64"
        },
        {
          "internalType": "uint64",
          "name": "maturityDate_",
          "type": "uint64"
        },
        {
          "internalType": "enum Bond.Tenor",
          "name": "tenor_",
          "type": "uint8"
        }
      ],
      "stateMutability": "nonpayable",
      "type": "constructor"
    },
    {
      "anonymous": false,
      "inputs": [
        {
          "indexed": true,
          "internalType": "address",
          "name": "owner",
          "type": "address"
        },
        {
          "indexed": true,
          "internalType": "address",
          "name": "spender",
          "type": "address"
        },
        {
          "indexed": false,
          "internalType": "uint256",
          "name": "value",
          "type": "uint256"
        }
      ],
      "name": "Approval",
      "type": "event"
    },
    {
      "anonymous": false,
      "inputs": [
        {
          "indexed": true,
          "internalType": "address",
          "name": "previousOwner",
          "type": "address"
        },
        {
          "indexed": true,
          "internalType": "address",
          "name": "newOwner",
          "type": "address"
        }
      ],
      "name": "OwnershipTransferred",
      "type": "event"
    },
    {
      "anonymous": false,
      "inputs": [
        {
          "indexed": true,
          "internalType": "address",
          "name": "from",
          "type": "address"
        },
        {
          "indexed": true,
          "internalType": "address",
          "name": "to",
          "type": "address"
        },
        {
          "indexed": false,
          "internalType": "uint256",
          "name": "value",
          "type": "uint256"
        }
      ],
      "name": "Transfer",
      "type": "event"
    },
    {
      "inputs": [
        {
          "internalType": "address",
          "name": "owner",
          "type": "address"
        },
        {
          "internalType": "address",
          "name": "spender",
          "type": "address"
        }
      ],
      "name": "allowance",
      "outputs": [
        {
          "internalType": "uint256",
          "name": "",
          "type": "uint256"
        }
      ],
      "stateMutability": "view",
      "type": "function"
    },
    {
      "inputs": [
        {
          "internalType": "address",
          "name": "spender",
          "type": "address"
        },
        {
          "internalType": "uint256",
          "name": "amount",
          "type": "uint256"
        }
      ],
      "name": "approve",
      "outputs": [
        {
          "internalType": "bool",
          "name": "",
          "type": "bool"
        }
      ],
      "stateMutability": "nonpayable",
      "type": "function"
    },
    {
      "inputs": [
        {
          "internalType": "address",
          "name": "account",
          "type": "address"
        }
      ],
      "name": "balanceOf",
      "outputs": [
        {
          "internalType": "uint256",
          "name": "",
          "type": "uint256"
        }
      ],
      "stateMutability": "view",
      "type": "function"
    },
    {
      "inputs": [],
      "name": "couponRate",
      "outputs": [
        {
          "internalType": "uint24",
          "name": "",
          "type": "uint24"
        }
      ],
      "stateMutability": "view",
      "type": "function"
    },
    {
      "inputs": [],
      "name": "decimals",
      "outputs": [
        {
          "internalType": "uint8",
          "name": "",
          "type": "uint8"
        }
      ],
      "stateMutability": "pure",
      "type": "function"
    },
    {
      "inputs": [
        {
          "internalType": "address",
          "name": "spender",
          "type": "address"
        },
        {
          "internalType": "uint256",
          "name": "subtractedValue",
          "type": "uint256"
        }
      ],
      "name": "decreaseAllowance",
      "outputs": [
        {
          "internalType": "bool",
          "name": "",
          "type": "bool"
        }
      ],
      "stateMutability": "nonpayable",
      "type": "function"
    },
    {
      "inputs": [
        {
          "internalType": "address",
          "name": "spender",
          "type": "address"
        },
        {
          "internalType": "uint256",
          "name": "addedValue",
          "type": "uint256"
        }
      ],
      "name": "increaseAllowance",
      "outputs": [
        {
          "internalType": "bool",
          "name": "",
          "type": "bool"
        }
      ],
      "stateMutability": "nonpayable",
      "type": "function"
    },
    {
      "inputs": [],
      "name": "isin",
      "outputs": [
        {
          "internalType": "string",
          "name": "",
          "type": "string"
        }
      ],
      "stateMutability": "view",
      "type": "function"
    },
    {
      "inputs": [],
      "name": "issuanceCurrency",
      "outputs": [
        {
          "internalType": "enum Bond.Currency",
          "name": "",
          "type": "uint8"
        }
      ],
      "stateMutability": "view",
      "type": "function"
    },
    {
      "inputs": [],
      "name": "issuanceVolume",
      "outputs": [
        {
          "internalType": "uint64",
          "name": "",
          "type": "uint64"
        }
      ],
      "stateMutability": "view",
      "type": "function"
    },
    {
      "inputs": [],
      "name": "issuerLei",
      "outputs": [
        {
          "internalType": "string",
          "name": "",
          "type": "string"
        }
      ],
      "stateMutability": "view",
      "type": "function"
    },
    {
      "inputs": [],
      "name": "maturityDate",
      "outputs": [
        {
          "internalType": "uint64",
          "name": "",
          "type": "uint64"
        }
      ],
      "stateMutability": "view",
      "type": "function"
    },
    {
      "inputs": [],
      "name": "minimumOrderVolume",
      "outputs": [
        {
          "internalType": "uint64",
          "name": "",
          "type": "uint64"
        }
      ],
      "stateMutability": "view",
      "type": "function"
    },
    {
      "inputs": [
        {
          "internalType": "address[]",
          "name": "receivers",
          "type": "address[]"
        },
        {
          "internalType": "uint256[]",
          "name": "amounts",
          "type": "uint256[]"
        }
      ],
      "name": "mintBatch",
      "outputs": [],
      "stateMutability": "nonpayable",
      "type": "function"
    },
    {
      "inputs": [],
      "name": "name",
      "outputs": [
        {
          "internalType": "string",
          "name": "",
          "type": "string"
        }
      ],
      "stateMutability": "view",
      "type": "function"
    },
    {
      "inputs": [],
      "name": "owner",
      "outputs": [
        {
          "internalType": "address",
          "name": "",
          "type": "address"
        }
      ],
      "stateMutability": "view",
      "type": "function"
    },
    {
      "inputs": [],
      "name": "renounceOwnership",
      "outputs": [],
      "stateMutability": "nonpayable",
      "type": "function"
    },
    {
      "inputs": [],
      "name": "startDate",
      "outputs": [
        {
          "internalType": "uint64",
          "name": "",
          "type": "uint64"
        }
      ],
      "stateMutability": "view",
      "type": "function"
    },
    {
      "inputs": [],
      "name": "symbol",
      "outputs": [
        {
          "internalType": "string",
          "name": "",
          "type": "string"
        }
      ],
      "stateMutability": "view",
      "type": "function"
    },
    {
      "inputs": [],
      "name": "tenor",
      "outputs": [
        {
          "internalType": "enum Bond.Tenor",
          "name": "",
          "type": "uint8"
        }
      ],
      "stateMutability": "view",
      "type": "function"
    },
    {
      "inputs": [],
      "name": "totalSupply",
      "outputs": [
        {
          "internalType": "uint256",
          "name": "",
          "type": "uint256"
        }
      ],
      "stateMutability": "view",
      "type": "function"
    },
    {
      "inputs": [
        {
          "internalType": "address",
          "name": "to",
          "type": "address"
        },
        {
          "internalType": "uint256",
          "name": "amount",
          "type": "uint256"
        }
      ],
      "name": "transfer",
      "outputs": [
        {
          "internalType": "bool",
          "name": "",
          "type": "bool"
        }
      ],
      "stateMutability": "nonpayable",
      "type": "function"
    },
    {
      "inputs": [
        {
          "internalType": "address",
          "name": "from",
          "type": "address"
        },
        {
          "internalType": "address",
          "name": "to",
          "type": "address"
        },
        {
          "internalType": "uint256",
          "name": "amount",
          "type": "uint256"
        }
      ],
      "name": "transferFrom",
      "outputs": [
        {
          "internalType": "bool",
          "name": "",
          "type": "bool"
        }
      ],
      "stateMutability": "nonpayable",
      "type": "function"
    },
    {
      "inputs": [
        {
          "internalType": "address",
          "name": "newOwner",
          "type": "address"
        }
      ],
      "name": "transferOwnership",
      "outputs": [],
      "stateMutability": "nonpayable",
      "type": "function"
    }
  ],
  "bytecode": "0x60806040523480156200001157600080fd5b506040516200352f3803806200352f833981810160405281019062000037919062000742565b886040518060400160405280600381526020017f424e44000000000000000000000000000000000000000000000000000000000081525081600390816200007f919062000ad8565b50806004908162000091919062000ad8565b505050620000b4620000a86200025660201b60201c565b6200025e60201b60201c565b8860069081620000c5919062000ad8565b508760079081620000d7919062000ad8565b5086600860006101000a81548167ffffffffffffffff021916908367ffffffffffffffff160217905550856008806101000a81548160ff0219169083600281111562000128576200012762000bbf565b5b021790555084600860096101000a81548167ffffffffffffffff021916908367ffffffffffffffff16021790555083600860116101000a81548162ffffff021916908362ffffff16021790555082600860146101000a81548167ffffffffffffffff021916908367ffffffffffffffff16021790555081600960006101000a81548167ffffffffffffffff021916908367ffffffffffffffff16021790555080600960086101000a81548160ff02191690836002811115620001ef57620001ee62000bbf565b5b0217905550896009806101000a81548173ffffffffffffffffffffffffffffffffffffffff021916908373ffffffffffffffffffffffffffffffffffffffff160217905550620002458b6200032460201b60201c565b505050505050505050505062000d09565b600033905090565b6000600560009054906101000a900473ffffffffffffffffffffffffffffffffffffffff16905081600560006101000a81548173ffffffffffffffffffffffffffffffffffffffff021916908373ffffffffffffffffffffffffffffffffffffffff1602179055508173ffffffffffffffffffffffffffffffffffffffff168173ffffffffffffffffffffffffffffffffffffffff167f8be0079c531659141344cd1fd0a4f28419497f9722a3daafe3b4186f6b6457e060405160405180910390a35050565b62000334620003ba60201b60201c565b600073ffffffffffffffffffffffffffffffffffffffff168173ffffffffffffffffffffffffffffffffffffffff1603620003a6576040517f08c379a00000000000000000000000000000000000000000000000000000000081526004016200039d9062000c75565b60405180910390fd5b620003b7816200025e60201b60201c565b50565b620003ca6200025660201b60201c565b73ffffffffffffffffffffffffffffffffffffffff16620003f06200044b60201b60201c565b73ffffffffffffffffffffffffffffffffffffffff161462000449576040517f08c379a0000000000000000000000000000000000000000000000000000000008152600401620004409062000ce7565b60405180910390fd5b565b6000600560009054906101000a900473ffffffffffffffffffffffffffffffffffffffff16905090565b6000604051905090565b600080fd5b600080fd5b600073ffffffffffffffffffffffffffffffffffffffff82169050919050565b6000620004b68262000489565b9050919050565b620004c881620004a9565b8114620004d457600080fd5b50565b600081519050620004e881620004bd565b92915050565b600080fd5b600080fd5b6000601f19601f8301169050919050565b7f4e487b7100000000000000000000000000000000000000000000000000000000600052604160045260246000fd5b6200054382620004f8565b810181811067ffffffffffffffff8211171562000565576200056462000509565b5b80604052505050565b60006200057a62000475565b905062000588828262000538565b919050565b600067ffffffffffffffff821115620005ab57620005aa62000509565b5b620005b682620004f8565b9050602081019050919050565b60005b83811015620005e3578082015181840152602081019050620005c6565b60008484015250505050565b60006200060662000600846200058d565b6200056e565b905082815260208101848484011115620006255762000624620004f3565b5b62000632848285620005c3565b509392505050565b600082601f830112620006525762000651620004ee565b5b815162000664848260208601620005ef565b91505092915050565b600067ffffffffffffffff82169050919050565b6200068c816200066d565b81146200069857600080fd5b50565b600081519050620006ac8162000681565b92915050565b60038110620006c057600080fd5b50565b600081519050620006d481620006b2565b92915050565b600062ffffff82169050919050565b620006f481620006da565b81146200070057600080fd5b50565b6000815190506200071481620006e9565b92915050565b600381106200072857600080fd5b50565b6000815190506200073c816200071a565b92915050565b60008060008060008060008060008060006101608c8e0312156200076b576200076a6200047f565b5b60006200077b8e828f01620004d7565b9b505060206200078e8e828f01620004d7565b9a505060408c015167ffffffffffffffff811115620007b257620007b162000484565b5b620007c08e828f016200063a565b99505060608c015167ffffffffffffffff811115620007e457620007e362000484565b5b620007f28e828f016200063a565b9850506080620008058e828f016200069b565b97505060a0620008188e828f01620006c3565b96505060c06200082b8e828f016200069b565b95505060e06200083e8e828f0162000703565b945050610100620008528e828f016200069b565b935050610120620008668e828f016200069b565b9250506101406200087a8e828f016200072b565b9150509295989b509295989b9093969950565b600081519050919050565b7f4e487b7100000000000000000000000000000000000000000000000000000000600052602260045260246000fd5b60006002820490506001821680620008e057607f821691505b602082108103620008f657620008f562000898565b5b50919050565b60008190508160005260206000209050919050565b60006020601f8301049050919050565b600082821b905092915050565b600060088302620009607fffffffffffffffffffffffffffffffffffffffffffffffffffffffffffffffff8262000921565b6200096c868362000921565b95508019841693508086168417925050509392505050565b6000819050919050565b6000819050919050565b6000620009b9620009b3620009ad8462000984565b6200098e565b62000984565b9050919050565b6000819050919050565b620009d58362000998565b620009ed620009e482620009c0565b8484546200092e565b825550505050565b600090565b62000a04620009f5565b62000a11818484620009ca565b505050565b5b8181101562000a395762000a2d600082620009fa565b60018101905062000a17565b5050565b601f82111562000a885762000a5281620008fc565b62000a5d8462000911565b8101602085101562000a6d578190505b62000a8562000a7c8562000911565b83018262000a16565b50505b505050565b600082821c905092915050565b600062000aad6000198460080262000a8d565b1980831691505092915050565b600062000ac8838362000a9a565b9150826002028217905092915050565b62000ae3826200088d565b67ffffffffffffffff81111562000aff5762000afe62000509565b5b62000b0b8254620008c7565b62000b1882828562000a3d565b600060209050601f83116001811462000b50576000841562000b3b578287015190505b62000b47858262000aba565b86555062000bb7565b601f19841662000b6086620008fc565b60005b8281101562000b8a5784890151825560018201915060208501945060208101905062000b63565b8683101562000baa578489015162000ba6601f89168262000a9a565b8355505b6001600288020188555050505b505050505050565b7f4e487b7100000000000000000000000000000000000000000000000000000000600052602160045260246000fd5b600082825260208201905092915050565b7f4f776e61626c653a206e6577206f776e657220697320746865207a65726f206160008201527f6464726573730000000000000000000000000000000000000000000000000000602082015250565b600062000c5d60268362000bee565b915062000c6a8262000bff565b604082019050919050565b6000602082019050818103600083015262000c908162000c4e565b9050919050565b7f4f776e61626c653a2063616c6c6572206973206e6f7420746865206f776e6572600082015250565b600062000ccf60208362000bee565b915062000cdc8262000c97565b602082019050919050565b6000602082019050818103600083015262000d028162000cc0565b9050919050565b6128168062000d196000396000f3fe608060405234801561001057600080fd5b50600436106101585760003560e01c8063862b07b2116100c3578063c0bcb26f1161007c578063c0bcb26f146103cf578063d59624b4146103ed578063dd62ed3e1461040b578063e3c6d3a81461043b578063e7958d4214610459578063f2fde38b1461047757610158565b8063862b07b2146102f75780638da5cb5b1461031557806395d89b4114610333578063a15612d114610351578063a457c2d71461036f578063a9059cbb1461039f57610158565b806337d1d8871161011557806337d1d88714610235578063395093511461025357806370a0823114610283578063715018a6146102b35780637c88e3d9146102bd57806382d5a60d146102d957610158565b806306fdde031461015d578063095ea7b31461017b5780630b97bc86146101ab57806318160ddd146101c957806323b872dd146101e7578063313ce56714610217575b600080fd5b610165610493565b6040516101729190611a69565b60405180910390f35b61019560048036038101906101909190611b33565b610525565b6040516101a29190611b8e565b60405180910390f35b6101b361063b565b6040516101c09190611bcc565b60405180910390f35b6101d1610659565b6040516101de9190611bf6565b60405180910390f35b61020160048036038101906101fc9190611c11565b610663565b60405161020e9190611b8e565b60405180910390f35b61021f61077b565b60405161022c9190611c80565b60405180910390f35b61023d610780565b60405161024a9190611a69565b60405180910390f35b61026d60048036038101906102689190611b33565b610812565b60405161027a9190611b8e565b60405180910390f35b61029d60048036038101906102989190611c9b565b610928565b6040516102aa9190611bf6565b60405180910390f35b6102bb610970565b005b6102d760048036038101906102d29190611ed3565b610984565b005b6102e1610a9a565b6040516102ee9190611a69565b60405180910390f35b6102ff610b2c565b60405161030c9190611bcc565b60405180910390f35b61031d610b4a565b60405161032a9190611f5a565b60405180910390f35b61033b610b74565b6040516103489190611a69565b60405180910390f35b610359610c06565b6040516103669190611fec565b60405180910390f35b61038960048036038101906103849190611b33565b610c1d565b6040516103969190611b8e565b60405180910390f35b6103b960048036038101906103b49190611b33565b610d33565b6040516103c69190611b8e565b60405180910390f35b6103d7610e49565b6040516103e49190612025565b60405180910390f35b6103f5610e62565b6040516104029190611bcc565b60405180910390f35b61042560048036038101906104209190612040565b610e80565b6040516104329190611bf6565b60405180910390f35b610443610f96565b60405161045091906120c8565b60405180910390f35b610461610fab565b60405161046e9190611bcc565b60405180910390f35b610491600480360381019061048c9190611c9b565b610fc9565b005b6060600380546104a290612112565b80601f01602080910402602001604051908101604052809291908181526020018280546104ce90612112565b801561051b5780601f106104f05761010080835404028352916020019161051b565b820191906000526020600020905b8154815290600101906020018083116104fe57829003601f168201915b5050505050905090565b60006105303361104c565b6040518060400160405280601881526020017f4f776e6572206973206e6f742077686974656c69737465640000000000000000815250906105a7576040517f08c379a000000000000000000000000000000000000000000000000000000000815260040161059e9190611a69565b60405180910390fd5b506105b18361104c565b6040518060400160405280601a81526020017f5370656e646572206973206e6f742077686974656c697374656400000000000081525090610628576040517f08c379a000000000000000000000000000000000000000000000000000000000815260040161061f9190611a69565b60405180910390fd5b5061063383836110ef565b905092915050565b6000600860149054906101000a900467ffffffffffffffff16905090565b6000600254905090565b600061066e8461104c565b6040518060400160405280601881526020017f4f776e6572206973206e6f742077686974656c69737465640000000000000000815250906106e5576040517f08c379a00000000000000000000000000000000000000000000000000000000081526004016106dc9190611a69565b60405180910390fd5b506106ef8361104c565b6040518060400160405280601b81526020017f5265636569766572206973206e6f742077686974656c6973746564000000000081525090610766576040517f08c379a000000000000000000000000000000000000000000000000000000000815260040161075d9190611a69565b60405180910390fd5b50610772848484611112565b90509392505050565b600090565b60606007805461078f90612112565b80601f01602080910402602001604051908101604052809291908181526020018280546107bb90612112565b80156108085780601f106107dd57610100808354040283529160200191610808565b820191906000526020600020905b8154815290600101906020018083116107eb57829003601f168201915b5050505050905090565b600061081d3361104c565b6040518060400160405280601881526020017f4f776e6572206973206e6f742077686974656c6973746564000000000000000081525090610894576040517f08c379a000000000000000000000000000000000000000000000000000000000815260040161088b9190611a69565b60405180910390fd5b5061089e8361104c565b6040518060400160405280601a81526020017f5370656e646572206973206e6f742077686974656c697374656400000000000081525090610915576040517f08c379a000000000000000000000000000000000000000000000000000000000815260040161090c9190611a69565b60405180910390fd5b5061092083836110ef565b905092915050565b60008060008373ffffffffffffffffffffffffffffffffffffffff1673ffffffffffffffffffffffffffffffffffffffff168152602001908152602001600020549050919050565b610978611141565b61098260006111bf565b565b61098c611141565b805182511461099a57600080fd5b60005b8251811015610a37576109c98382815181106109bc576109bb612143565b5b602002602001015161104c565b6040518060600160405280602881526020016127b96028913990610a23576040517f08c379a0000000000000000000000000000000000000000000000000000000008152600401610a1a9190611a69565b60405180910390fd5b508080610a2f906121a1565b91505061099d565b5060005b8251811015610a9557610a82838281518110610a5a57610a59612143565b5b6020026020010151838381518110610a7557610a74612143565b5b6020026020010151611285565b8080610a8d906121a1565b915050610a3b565b505050565b606060068054610aa990612112565b80601f0160208091040260200160405190810160405280929190818152602001828054610ad590612112565b8015610b225780601f10610af757610100808354040283529160200191610b22565b820191906000526020600020905b815481529060010190602001808311610b0557829003601f168201915b5050505050905090565b6000600860009054906101000a900467ffffffffffffffff16905090565b6000600560009054906101000a900473ffffffffffffffffffffffffffffffffffffffff16905090565b606060048054610b8390612112565b80601f0160208091040260200160405190810160405280929190818152602001828054610baf90612112565b8015610bfc5780601f10610bd157610100808354040283529160200191610bfc565b820191906000526020600020905b815481529060010190602001808311610bdf57829003601f168201915b5050505050905090565b6000600960089054906101000a900460ff16905090565b6000610c283361104c565b6040518060400160405280601881526020017f4f776e6572206973206e6f742077686974656c6973746564000000000000000081525090610c9f576040517f08c379a0000000000000000000000000000000000000000000000000000000008152600401610c969190611a69565b60405180910390fd5b50610ca98361104c565b6040518060400160405280601a81526020017f5370656e646572206973206e6f742077686974656c697374656400000000000081525090610d20576040517f08c379a0000000000000000000000000000000000000000000000000000000008152600401610d179190611a69565b60405180910390fd5b50610d2b83836113db565b905092915050565b6000610d3e3361104c565b6040518060400160405280601881526020017f4f776e6572206973206e6f742077686974656c6973746564000000000000000081525090610db5576040517f08c379a0000000000000000000000000000000000000000000000000000000008152600401610dac9190611a69565b60405180910390fd5b50610dbf8361104c565b6040518060400160405280601b81526020017f5265636569766572206973206e6f742077686974656c6973746564000000000081525090610e36576040517f08c379a0000000000000000000000000000000000000000000000000000000008152600401610e2d9190611a69565b60405180910390fd5b50610e418383611452565b905092915050565b6000600860119054906101000a900462ffffff16905090565b6000600960009054906101000a900467ffffffffffffffff16905090565b6000610e8b8361104c565b6040518060400160405280601881526020017f4f776e6572206973206e6f742077686974656c6973746564000000000000000081525090610f02576040517f08c379a0000000000000000000000000000000000000000000000000000000008152600401610ef99190611a69565b60405180910390fd5b50610f0c8261104c565b6040518060400160405280601a81526020017f5370656e646572206973206e6f742077686974656c697374656400000000000081525090610f83576040517f08c379a0000000000000000000000000000000000000000000000000000000008152600401610f7a9190611a69565b60405180910390fd5b50610f8e8383611475565b905092915050565b600060088054906101000a900460ff16905090565b6000600860099054906101000a900467ffffffffffffffff16905090565b610fd1611141565b600073ffffffffffffffffffffffffffffffffffffffff168173ffffffffffffffffffffffffffffffffffffffff1603611040576040517f08c379a00000000000000000000000000000000000000000000000000000000081526004016110379061225b565b60405180910390fd5b611049816111bf565b50565b600060098054906101000a900473ffffffffffffffffffffffffffffffffffffffff1673ffffffffffffffffffffffffffffffffffffffff16633af32abf836040518263ffffffff1660e01b81526004016110a79190611f5a565b602060405180830381865afa1580156110c4573d6000803e3d6000fd5b505050506040513d601f19601f820116820180604052508101906110e891906122a7565b9050919050565b6000806110fa6114fc565b9050611107818585611504565b600191505092915050565b60008061111d6114fc565b905061112a8582856116cd565b611135858585611759565b60019150509392505050565b6111496114fc565b73ffffffffffffffffffffffffffffffffffffffff16611167610b4a565b73ffffffffffffffffffffffffffffffffffffffff16146111bd576040517f08c379a00000000000000000000000000000000000000000000000000000000081526004016111b490612320565b60405180910390fd5b565b6000600560009054906101000a900473ffffffffffffffffffffffffffffffffffffffff16905081600560006101000a81548173ffffffffffffffffffffffffffffffffffffffff021916908373ffffffffffffffffffffffffffffffffffffffff1602179055508173ffffffffffffffffffffffffffffffffffffffff168173ffffffffffffffffffffffffffffffffffffffff167f8be0079c531659141344cd1fd0a4f28419497f9722a3daafe3b4186f6b6457e060405160405180910390a35050565b600073ffffffffffffffffffffffffffffffffffffffff168273ffffffffffffffffffffffffffffffffffffffff16036112f4576040517f08c379a00000000000000000000000000000000000000000000000000000000081526004016112eb9061238c565b60405180910390fd5b611300600083836119cf565b806002600082825461131291906123ac565b92505081905550806000808473ffffffffffffffffffffffffffffffffffffffff1673ffffffffffffffffffffffffffffffffffffffff168152602001908152602001600020600082825401925050819055508173ffffffffffffffffffffffffffffffffffffffff16600073ffffffffffffffffffffffffffffffffffffffff167fddf252ad1be2c89b69c2b068fc378daa952ba7f163c4a11628f55a4df523b3ef836040516113c39190611bf6565b60405180910390a36113d7600083836119d4565b5050565b6000806113e66114fc565b905060006113f48286610e80565b905083811015611439576040517f08c379a000000000000000000000000000000000000000000000000000000000815260040161143090612452565b60405180910390fd5b6114468286868403611504565b60019250505092915050565b60008061145d6114fc565b905061146a818585611759565b600191505092915050565b6000600160008473ffffffffffffffffffffffffffffffffffffffff1673ffffffffffffffffffffffffffffffffffffffff16815260200190815260200160002060008373ffffffffffffffffffffffffffffffffffffffff1673ffffffffffffffffffffffffffffffffffffffff16815260200190815260200160002054905092915050565b600033905090565b600073ffffffffffffffffffffffffffffffffffffffff168373ffffffffffffffffffffffffffffffffffffffff1603611573576040517f08c379a000000000000000000000000000000000000000000000000000000000815260040161156a906124e4565b60405180910390fd5b600073ffffffffffffffffffffffffffffffffffffffff168273ffffffffffffffffffffffffffffffffffffffff16036115e2576040517f08c379a00000000000000000000000000000000000000000000000000000000081526004016115d990612576565b60405180910390fd5b80600160008573ffffffffffffffffffffffffffffffffffffffff1673ffffffffffffffffffffffffffffffffffffffff16815260200190815260200160002060008473ffffffffffffffffffffffffffffffffffffffff1673ffffffffffffffffffffffffffffffffffffffff168152602001908152602001600020819055508173ffffffffffffffffffffffffffffffffffffffff168373ffffffffffffffffffffffffffffffffffffffff167f8c5be1e5ebec7d5bd14f71427d1e84f3dd0314c0f7b2291e5b200ac8c7c3b925836040516116c09190611bf6565b60405180910390a3505050565b60006116d98484610e80565b90507fffffffffffffffffffffffffffffffffffffffffffffffffffffffffffffffff81146117535781811015611745576040517f08c379a000000000000000000000000000000000000000000000000000000000815260040161173c906125e2565b60405180910390fd5b6117528484848403611504565b5b50505050565b600073ffffffffffffffffffffffffffffffffffffffff168373ffffffffffffffffffffffffffffffffffffffff16036117c8576040517f08c379a00000000000000000000000000000000000000000000000000000000081526004016117bf90612674565b60405180910390fd5b600073ffffffffffffffffffffffffffffffffffffffff168273ffffffffffffffffffffffffffffffffffffffff1603611837576040517f08c379a000000000000000000000000000000000000000000000000000000000815260040161182e90612706565b60405180910390fd5b6118428383836119cf565b60008060008573ffffffffffffffffffffffffffffffffffffffff1673ffffffffffffffffffffffffffffffffffffffff168152602001908152602001600020549050818110156118c8576040517f08c379a00000000000000000000000000000000000000000000000000000000081526004016118bf90612798565b60405180910390fd5b8181036000808673ffffffffffffffffffffffffffffffffffffffff1673ffffffffffffffffffffffffffffffffffffffff16815260200190815260200160002081905550816000808573ffffffffffffffffffffffffffffffffffffffff1673ffffffffffffffffffffffffffffffffffffffff168152602001908152602001600020600082825401925050819055508273ffffffffffffffffffffffffffffffffffffffff168473ffffffffffffffffffffffffffffffffffffffff167fddf252ad1be2c89b69c2b068fc378daa952ba7f163c4a11628f55a4df523b3ef846040516119b69190611bf6565b60405180910390a36119c98484846119d4565b50505050565b505050565b505050565b600081519050919050565b600082825260208201905092915050565b60005b83811015611a135780820151818401526020810190506119f8565b60008484015250505050565b6000601f19601f8301169050919050565b6000611a3b826119d9565b611a4581856119e4565b9350611a558185602086016119f5565b611a5e81611a1f565b840191505092915050565b60006020820190508181036000830152611a838184611a30565b905092915050565b6000604051905090565b600080fd5b600080fd5b600073ffffffffffffffffffffffffffffffffffffffff82169050919050565b6000611aca82611a9f565b9050919050565b611ada81611abf565b8114611ae557600080fd5b50565b600081359050611af781611ad1565b92915050565b6000819050919050565b611b1081611afd565b8114611b1b57600080fd5b50565b600081359050611b2d81611b07565b92915050565b60008060408385031215611b4a57611b49611a95565b5b6000611b5885828601611ae8565b9250506020611b6985828601611b1e565b9150509250929050565b60008115159050919050565b611b8881611b73565b82525050565b6000602082019050611ba36000830184611b7f565b92915050565b600067ffffffffffffffff82169050919050565b611bc681611ba9565b82525050565b6000602082019050611be16000830184611bbd565b92915050565b611bf081611afd565b82525050565b6000602082019050611c0b6000830184611be7565b92915050565b600080600060608486031215611c2a57611c29611a95565b5b6000611c3886828701611ae8565b9350506020611c4986828701611ae8565b9250506040611c5a86828701611b1e565b9150509250925092565b600060ff82169050919050565b611c7a81611c64565b82525050565b6000602082019050611c956000830184611c71565b92915050565b600060208284031215611cb157611cb0611a95565b5b6000611cbf84828501611ae8565b91505092915050565b600080fd5b7f4e487b7100000000000000000000000000000000000000000000000000000000600052604160045260246000fd5b611d0582611a1f565b810181811067ffffffffffffffff82111715611d2457611d23611ccd565b5b80604052505050565b6000611d37611a8b565b9050611d438282611cfc565b919050565b600067ffffffffffffffff821115611d6357611d62611ccd565b5b602082029050602081019050919050565b600080fd5b6000611d8c611d8784611d48565b611d2d565b90508083825260208201905060208402830185811115611daf57611dae611d74565b5b835b81811015611dd85780611dc48882611ae8565b845260208401935050602081019050611db1565b5050509392505050565b600082601f830112611df757611df6611cc8565b5b8135611e07848260208601611d79565b91505092915050565b600067ffffffffffffffff821115611e2b57611e2a611ccd565b5b602082029050602081019050919050565b6000611e4f611e4a84611e10565b611d2d565b90508083825260208201905060208402830185811115611e7257611e71611d74565b5b835b81811015611e9b5780611e878882611b1e565b845260208401935050602081019050611e74565b5050509392505050565b600082601f830112611eba57611eb9611cc8565b5b8135611eca848260208601611e3c565b91505092915050565b60008060408385031215611eea57611ee9611a95565b5b600083013567ffffffffffffffff811115611f0857611f07611a9a565b5b611f1485828601611de2565b925050602083013567ffffffffffffffff811115611f3557611f34611a9a565b5b611f4185828601611ea5565b9150509250929050565b611f5481611abf565b82525050565b6000602082019050611f6f6000830184611f4b565b92915050565b7f4e487b7100000000000000000000000000000000000000000000000000000000600052602160045260246000fd5b60038110611fb557611fb4611f75565b5b50565b6000819050611fc682611fa4565b919050565b6000611fd682611fb8565b9050919050565b611fe681611fcb565b82525050565b60006020820190506120016000830184611fdd565b92915050565b600062ffffff82169050919050565b61201f81612007565b82525050565b600060208201905061203a6000830184612016565b92915050565b6000806040838503121561205757612056611a95565b5b600061206585828601611ae8565b925050602061207685828601611ae8565b9150509250929050565b6003811061209157612090611f75565b5b50565b60008190506120a282612080565b919050565b60006120b282612094565b9050919050565b6120c2816120a7565b82525050565b60006020820190506120dd60008301846120b9565b92915050565b7f4e487b7100000000000000000000000000000000000000000000000000000000600052602260045260246000fd5b6000600282049050600182168061212a57607f821691505b60208210810361213d5761213c6120e3565b5b50919050565b7f4e487b7100000000000000000000000000000000000000000000000000000000600052603260045260246000fd5b7f4e487b7100000000000000000000000000000000000000000000000000000000600052601160045260246000fd5b60006121ac82611afd565b91507fffffffffffffffffffffffffffffffffffffffffffffffffffffffffffffffff82036121de576121dd612172565b5b600182019050919050565b7f4f776e61626c653a206e6577206f776e657220697320746865207a65726f206160008201527f6464726573730000000000000000000000000000000000000000000000000000602082015250565b60006122456026836119e4565b9150612250826121e9565b604082019050919050565b6000602082019050818103600083015261227481612238565b9050919050565b61228481611b73565b811461228f57600080fd5b50565b6000815190506122a18161227b565b92915050565b6000602082840312156122bd576122bc611a95565b5b60006122cb84828501612292565b91505092915050565b7f4f776e61626c653a2063616c6c6572206973206e6f7420746865206f776e6572600082015250565b600061230a6020836119e4565b9150612315826122d4565b602082019050919050565b60006020820190508181036000830152612339816122fd565b9050919050565b7f45524332303a206d696e7420746f20746865207a65726f206164647265737300600082015250565b6000612376601f836119e4565b915061238182612340565b602082019050919050565b600060208201905081810360008301526123a581612369565b9050919050565b60006123b782611afd565b91506123c283611afd565b92508282019050808211156123da576123d9612172565b5b92915050565b7f45524332303a2064656372656173656420616c6c6f77616e63652062656c6f7760008201527f207a65726f000000000000000000000000000000000000000000000000000000602082015250565b600061243c6025836119e4565b9150612447826123e0565b604082019050919050565b6000602082019050818103600083015261246b8161242f565b9050919050565b7f45524332303a20617070726f76652066726f6d20746865207a65726f2061646460008201527f7265737300000000000000000000000000000000000000000000000000000000602082015250565b60006124ce6024836119e4565b91506124d982612472565b604082019050919050565b600060208201905081810360008301526124fd816124c1565b9050919050565b7f45524332303a20617070726f766520746f20746865207a65726f20616464726560008201527f7373000000000000000000000000000000000000000000000000000000000000602082015250565b60006125606022836119e4565b915061256b82612504565b604082019050919050565b6000602082019050818103600083015261258f81612553565b9050919050565b7f45524332303a20696e73756666696369656e7420616c6c6f77616e6365000000600082015250565b60006125cc601d836119e4565b91506125d782612596565b602082019050919050565b600060208201905081810360008301526125fb816125bf565b9050919050565b7f45524332303a207472616e736665722066726f6d20746865207a65726f20616460008201527f6472657373000000000000000000000000000000000000000000000000000000602082015250565b600061265e6025836119e4565b915061266982612602565b604082019050919050565b6000602082019050818103600083015261268d81612651565b9050919050565b7f45524332303a207472616e7366657220746f20746865207a65726f206164647260008201527f6573730000000000000000000000000000000000000000000000000000000000602082015250565b60006126f06023836119e4565b91506126fb82612694565b604082019050919050565b6000602082019050818103600083015261271f816126e3565b9050919050565b7f45524332303a207472616e7366657220616d6f756e742065786365656473206260008201527f616c616e63650000000000000000000000000000000000000000000000000000602082015250565b60006127826026836119e4565b915061278d82612726565b604082019050919050565b600060208201905081810360008301526127b181612775565b905091905056fe4174206c65617374206f6e65205265636569766572206973206e6f742077686974656c6973746564a26469706673582212207c4bed121e86ed7aaf4edb805bcffd5daa51891da6f6b53e18f3415950fa99f664736f6c63430008110033",
  "linkReferences": {},
  "deployedLinkReferences": {}
}